:100000000C943E000C945B000C945B000C945B0021
:100010000C945B000C945B000C945B000C945B00F4
:100020000C945B000C945B000C945B000C945B00E4
:100030000C945B000C945B000C945B000C945B00D4
:100040000C945B000C945B000C945B000C945B00C4
:100050000C945B000C945B000C945B000C945B00B4
:100060000C945B000C945B000C945B000C945B00A4
:100070000C945B000C945B000C945B0011241FBE7D
:10008000CFEFD8E0DEBFCDBF11E0A0E0B1E0E0E00F
:10009000FBE102C005900D92A833B107D9F721E02A
:1000A000A8E3B1E001C01D92A434B207E1F70E94B9
:1000B00034010C947E0D0C94000081E08093B90013
:1000C0008093B80084E08093BC000895CF93DF93C1
:1000D0001F92CDB7DEB784EA8093BC008091BC004C
:1000E0008823E4F78091B900887F89830F90DF919E
:1000F000CF91089584E98093BC000895CF93DF9356
:100100001F92CDB7DEB78093BB0084E88093BC001C
:100110008091BC008823E4F78091B900887F8983AF
:100120000F90DF91CF910895CF93DF93D82FC62FF3
:100130000E9466008D2F0E947E0080E00E947E005B
:100140008C2F0E947E000E947A00DF91CF9108954B
:10015000CF93DF93D82FC62F0E9466008D2F0E9469
:100160007E0080E40E947E008C2F0E947E000E9410
:100170007A00DF91CF9108956AE388E70E949400A6
:1001800069E088E70E94940066E088E70E94940096
:100190006EE188E70E94940069E388E70E9494007A
:1001A0006BE188E70E9494006EE688E70E94940065
:1001B00067E588E70E9494006AE788E70E94940058
:1001C00068E388E70E9494006FE088E70E9494004B
:1001D0000895CF92DF92EF92FF920F931F93CF93E8
:1001E000DF937C0161E088E70E94940060E888E783
:1001F0000E9494006894CC24C7F8D12CC0E0D0E0D1
:1002000023C02097D9F0CE016AE070E00E941A0A5C
:10021000892BA1F480EEC816D10449F461E088E787
:100220000E9494006894CC24C7F8D12C03C0E0E26B
:10023000CE0ED11C6C2D88E70E949400F8016081DD
:1002400088E70E94A800219687010C0F1D1FF80166
:1002500080818111D6CFDF91CF911F910F91FF90B7
:10026000EF90DF90CF900895CF93DF93CDB7DEB7B7
:10027000C056D1090FB6F894DEBF0FBECDBFE1E680
:10028000F0E080E8808310828FEF8AB911B81AA657
:1002900019A61CA61BA681B18E7F81B981B18D7F65
:1002A00081B981B18B7F81B981B1877F81B981B1FA
:1002B0008F7E81B981B18F7781B98AB180688AB91F
:1002C0008FE097E20197F1F700C000008BB11BB8F7
:1002D0009FEF21EE84E0915020408040E1F700C084
:1002E00000008BB180648BB98FE097E20197F1F742
:1002F00000C000000E945D000E94BC0048E250E087
:1003000060E071E0CE018D960E94850ACE018D9647
:100310000E94E9000E9496070E941F04E12CF12C24
:100320008701E39420E030E0A9016CE180E00E94C5
:10033000820460E072E18AE790E00E94D30681E0E7
:100340000E9479040E945D0088248394912C0F2ED2
:10035000F0E4CF2EFFE1DF2EE12CF12CF02D80B167
:1003600080FBAA24A0F8B12CA196BFAEAEAEA19797
:1003700080B1827090E0959587956F969FAF8EAF14
:100380006F9780B1847090E0959587959595879546
:100390006D969FAF8EAF6D9780B1887090E0959508
:1003A000879595958795959587956B969FAF8EAF19
:1003B0006B9780B1807190E095958795959587951D
:1003C000959587959595879569969FAF8EAF699717
:1003D00080B1881F8827881F90E067969FAF8EAFF7
:1003E00067978FE19EE40197F1F700C00000A196A6
:1003F0008EAD9FADA197892BF1F5C701B6012AE01B
:1004000030E040E050E00E942E0A6930710581051D
:10041000910531F499E0C91AD108E108F10805C045
:100420002FEFC21AD20AE20AF20AFF92EF92DF928B
:10043000CF928EE091E09F938F938E010F5F1F4FBD
:100440001F930F930E94940AB801CE018D960E94CB
:100450007E0ACE018D960E94E9008FEF90E722E0A0
:10046000815090402040E1F700C000000FB6F894A2
:10047000DEBF0FBECDBF6F968EAD9FAD6F97892B40
:1004800009F049C00F2EFAE04F2E512C612C712C2F
:10049000F02DC701B601A30192010E942E0ACA01E4
:1004A000B901A30192010E942E0A693071058105EC
:1004B000910531F49AE5C91AD108E108F10805C09F
:1004C0002AE0C20ED11CE11CF11CFF92EF92DF92D8
:1004D000CF928EE091E09F938F938E010F5F1F4F1D
:1004E0001F930F930E94940AB801CE018D960E942B
:1004F0007E0ACE018D960E94E9008FEF90E722E000
:10050000815090402040E1F700C000000FB6F89401
:10051000DEBF0FBECDBF6D968EAD9FAD6D97892BA3
:1005200009F047C0C701B60124E630E040E050E0E2
:100530000E942E0ACA01B9012AE030E040E050E0F2
:100540000E942E0A693071058105910539F494E8FD
:10055000C91A93E0D90AE108F10805C024E6C20EE1
:10056000D11CE11CF11CFF92EF92DF92CF928EE042
:1005700091E09F938F938E010F5F1F4F1F930F93F7
:100580000E94940AB801CE018D960E947E0ACE0187
:100590008D960E94E9008FEF90E722E08150904015
:1005A0002040E1F700C000000FB6F894DEBF0FBE98
:1005B000CDBF6B968EAD9FAD6B97892BD1F591E832
:1005C000C9169EE3D906E104F10438F020E4C21A0A
:1005D0002FE1D20AE108F10806C088EEC80E83E0D8
:1005E000D81EE11CF11CFF92EF92DF92CF928EE0B9
:1005F00091E09F938F938E010F5F1F4F1F930F9377
:100600000E94940AB801CE018D960E947E0ACE0106
:100610008D960E94E9009FEF20E782E091502040F4
:100620008040E1F700C000000FB6F894DEBF0FBEB7
:10063000CDBF69968EAD9FAD6997892B09F047C0F4
:1006400081E090E09AA789A748E250E065E171E077
:10065000CE018D960E94850ACE018D960E94E900FA
:100660009FEF20E782E0915020408040E1F700C0FA
:10067000000091E089169104B1F48BB11BB82FE70B
:1006800088E391E0215080409040E1F700C00000F5
:10069000A8EEB3E0A70196010E94500A0E94D3067B
:1006A000812C912C14C08114910489F48BB1806445
:1006B0008BB92FE788E391E0215080409040E1F72B
:1006C00000C000000E94BC0088248394912C67968F
:1006D0008EAD9FAD6797892B09F041CE8BA59CA568
:1006E000892BE9F481E090E09CA78BA78BB180680F
:1006F0008BB948E250E067E271E0CE018D960E942E
:10070000850ACE018D960E94E9002FEF80E792E0E6
:10071000215080409040E1F700C0000020CE1CA690
:100720001BA68BB18F778BB948E250E06FE271E086
:10073000CE018D960E94850ACE018D960E94E90019
:100740002FEF80E792E0215080409040E1F700C019
:10075000000005CECF93DF93D82FC62F0E94A807A5
:1007600080E60E94BC078D2F0E94DC078C2F0E9420
:10077000DC070E94B807DF91CF9108951F93CF93B4
:10078000DF9300D01F92CDB7DEB7182F0E94A807C5
:1007900080E60E94BC07898389818831B9F4812F62
:1007A0000E94DC078A838A81883291F40E94B00714
:1007B00080E60E94CC078B838B81803459F40E94A1
:1007C000E80789830E94B807898105C08FEF03C0BD
:1007D0008FEF01C08FEF0F900F900F90DF91CF91AF
:1007E0001F910895CF93C82F85E90E94BE03CC23A3
:1007F00019F0682F606802C0682F6F7785E90E9442
:10080000AA03CF910895CF92DF92EF92FF926B01EE
:100810007C01E894C7F8DD24EE24FF2460E085EA3B
:100820000E94AA036C2D86EA0E94AA0360EA81EB6B
:100830000E94AA03FF90EF90DF90CF90089580E090
:1008400090E00CC0FC01EE0FFF1FEE0FFF1FE85CF5
:10085000FE4F10821182128213820196833091051D
:100860008CF362ED87EB0E94AA0360E880E10E94AE
:10087000AA0360E881E10E94AA0360E882E10E9485
:10088000AA0360E883E10E94AA0360E884E10E9471
:10089000AA0360E885E10E94AA0360E886E10E945D
:1008A000AA0360E887E10E94AA036CE080E10E944D
:1008B000AA036CE081E10E94AA036CE082E10E943D
:1008C000AA036CE083E10E94AA036CE084E10E9429
:1008D000AA036CE085E10E94AA036CE086E10E9415
:1008E000AA036CE087E10E94AA0380E00E94F20361
:1008F0000895882311F060E001C06FEF83E00E944B
:10090000AA0308954F925F926F927F928F929F9267
:10091000AF92BF92CF92DF92EF92FF920F931F930D
:10092000CF93DF9300D000D01F92CDB7DEB791EF09
:10093000960F9C3408F0C7C04701580191E0891A0E
:100940009108A108B1089FEF891699069FE0A906B2
:10095000B10408F0B8C02115310590E149075105EF
:1009600008F0B1C02701380149015A01C62E8D8314
:10097000CA01B9010E94930869837A838B839C839F
:10098000C801B7010E9493089B01AC0169817A817B
:100990008B819C810E94F20720E030E040E053E42C
:1009A0000E9479090E946408D12CE12CF12CCC0C16
:1009B000DD1CEE1CFF1CCC0CDD1CEE1CFF1CCC0C4B
:1009C000DD1CEE1CFF1CCC0CDD1CEE1CFF1CCC0C3B
:1009D000DD1CEE1CFF1CCC0CDD1CEE1CFF1CCC0C2B
:1009E000DD1CEE1CFF1CC60ED71EE81EF91E22E001
:1009F000D21AE108F108880C991CAA1CBB1C880CAF
:100A0000991CAA1CBB1C880C991CAA1CBB1C880C1A
:100A1000991CAA1CBB1C880C991CAA1CBB1C880C0A
:100A2000991CAA1CBB1C880C991CAA1CBB1CA301EA
:100A300092010E940A0A861A970AA80AB90A652D25
:100A40008D810E94AA03642D8D818F5F0E94AA036D
:100A5000D701C60188279927A370BB27BD01882726
:100A600099278D818E5F0E94AA036D2D8D818D5FE8
:100A70000E94AA036C2D8D818C5F0E94AA034424DE
:100A800055248FE068227724032E3CE07694679407
:100A9000579447943A95D1F7302DD501C401882752
:100AA0009927AF70BB27642D6A2B8D818B5F0E94C5
:100AB000AA03692D8D818A5F0E94AA03682D8D810A
:100AC000895F0E94AA030F900F900F900F900F90D4
:100AD000DF91CF911F910F91FF90EF90DF90CF901A
:100AE000BF90AF909F908F907F906F905F904F904E
:100AF00008954F925F926F927F928F929F92AF92E2
:100B0000BF92CF92DF92EF92FF920F931F93CF93FA
:100B1000DF9300D000D000D0CDB7DEB7633008F04F
:100B20000AC129013A0194E0491A51086108710883
:100B30009DEF491697E059066104710408F0FBC067
:100B40002501360191E0491A5108610871089FEFAB
:100B5000491659069FE06906710408F0ECC0E114DB
:100B6000F10490E10907110508F0E5C0A982BA82F5
:100B7000CB82DC824701580129013A016D83182F8D
:100B8000C501B4010E9493086B017C0169817A81DF
:100B90008B819C810E9493089B01AC01C701B60127
:100BA0000E94F20720E030E040E053E40E9479091F
:100BB0000E94640873016201CC0CDD1CEE1CFF1C5A
:100BC000CC0CDD1CEE1CFF1CCC0CDD1CEE1CFF1C39
:100BD000CC0CDD1CEE1CFF1CCC0CDD1CEE1CFF1C29
:100BE000CC0CDD1CEE1CFF1CCC0CDD1CEE1CFF1C19
:100BF000C60ED71EE81EF91E22E0D21AE108F1083F
:100C000024013501440C551C661C771C440C551CF2
:100C1000661C771C440C551C661C771C440C551C28
:100C2000661C771C440C551C661C771C440C551C18
:100C3000661C771C440C551C661C771C29813A8164
:100C40004B815C810E940A0A461A570A680A790A8F
:100C50008D81813029F050F0823029F01E8208C049
:100C600092E39E8305C02AE32E8302C08AE28E832C
:100C70002A81622F8E810E94AA0369818E818F5FF3
:100C80000E94AA03D701C60188279927A370BB2712
:100C9000BD01882799278E818E5F0E94AA036D2D42
:100CA0008E818D5F0E94AA036C2D8E818C5F0E94C5
:100CB000AA0389819A81AB81BC8188279927AF706B
:100CC000BB27072E7CE0B695A795979587957A95D3
:100CD000D1F7702DB301A201442755276F707727F4
:100CE000682B8E818B5F0E94AA03652D8E818A5F9F
:100CF0000E94AA03642D8E81895F0E94AA0311308D
:100D000011F06FE001C06FE289288A288B2809F46E
:100D100060648D81813041F018F0823049F00BC061
:100D200080E10E94AA0307C081E10E94AA0303C0D8
:100D300082E10E94AA0326960FB6F894DEBF0FBE8A
:100D4000CDBFDF91CF911F910F91FF90EF90DF907A
:100D5000CF90BF90AF909F908F907F906F905F905B
:100D60004F900895CF92DF92EF92FF926115710537
:100D70008105910579F06B017C01622F732F842F1F
:100D8000952FA70196010E942E0AA70196010E94A5
:100D9000B20604C0622F732F842F952FFF90EF901F
:100DA000DF90CF9008952F923F924F925F926F9273
:100DB0007F928F929F92AF92BF92CF92DF92EF92EB
:100DC000FF920F931F93CF93DF93CDB7DEB72A9790
:100DD0000FB6F894DEBF0FBECDBF2B013C0160E023
:100DE00077E289EB99E2A30192010E942E0A6B013E
:100DF0007C01CA01B9010E94930869837A838B83BD
:100E00009C830E94D0080E9464086D837E838F8338
:100E10009887A3019201C701B6010E94B2064B0157
:100E20005C01C701B601A50194010E942E0AF22EB1
:100E3000E32ED42EC52E2A873987342E252EC301C2
:100E4000B201A50194010E942E0AA22EB32E942E67
:100E5000852E422E532E642E752E4114510480E1AE
:100E60006806710440F16F2D7E2D8D2D9C2D0E9402
:100E700093086B017C016A2D7B2D892D982D0E9492
:100E800093089B01AC01C701B6010E94F20720EF55
:100E90003FEF4FE759E40E9479090E9464086A878E
:100EA0007987382E292E0F2E44244A94542CFFE0A3
:100EB0006F2E712CF02D63015201EA84F984032D09
:100EC000122D2D813E814F81588560E080E00E9487
:100ED0007905EA84F9842D813E814F81588561E04E
:100EE00080E00E94790569817A818B819C810E94D2
:100EF000E6090E9464080E9403042A960FB6F8943B
:100F0000DEBF0FBECDBFDF91CF911F910F91FF903C
:100F1000EF90DF90CF90BF90AF909F908F907F9099
:100F20006F905F904F903F902F90089587B18360AE
:100F300087B988B18C7F88B987B18C7F87B980E207
:100F40008093B800ECEBF0E08081846080830895AA
:100F500084EA8093BC008091BC008823E4F7089564
:100F600084EA8093BC008091BC008823E4F7089554
:100F700084E98093BC000895880F8093BB0084E8C7
:100F80008093BC008091BC008823E4F7E9EBF0E09B
:100F9000808180818E7F089590E0880F991F816005
:100FA0008093BB0084E88093BC008091BC008823C0
:100FB000E4F78091B90008958093BB0084E88093A2
:100FC000BC008091BC008823E4F78091B9000895AB
:100FD00084E88093BC008091BC008823E4F7809172
:100FE000BB0008950E9406080C9427090E9420095E
:100FF00058F00E94190940F029F45F3F29F00C9441
:10100000E70851110C9473090C9416090E943809D1
:1010100068F39923B1F3552391F3951B550BBB2727
:10102000AA2762177307840738F09F5F5F4F220F6C
:10103000331F441FAA1FA9F335D00E2E3AF0E0E863
:1010400032D091505040E695001CCAF72BD0FE2FAD
:1010500029D0660F771F881FBB1F26173707480741
:10106000AB07B0E809F0BB0B802DBF01FF279358F9
:101070005F4F3AF09E3F510578F00C94E7080C94CE
:1010800073095F3FE4F3983ED4F3869577956795AF
:10109000B795F7959F5FC9F7880F911D969587952E
:1010A00097F90895E1E0660F771F881FBB1F62174D
:1010B00073078407BA0720F0621B730B840BBA0B0B
:1010C000EE1F88F7E09508950E94400988F09F5729
:1010D00098F0B92F9927B751B0F0E1F0660F771F5C
:1010E000881F991F1AF0BA95C9F714C0B13091F052
:1010F0000E947209B1E008950C947209672F782F4D
:101100008827B85F39F0B93FCCF386957795679516
:10111000B395D9F73EF490958095709561957F4F82
:101120008F4F9F4F0895E89409C097FB3EF4909528
:101130008095709561957F4F8F4F9F4F9923A9F0B0
:10114000F92F96E9BB279395F6958795779567953F
:10115000B795F111F8CFFAF4BB0F11F460FF1BC083
:101160006F5F7F4F8F4F9F4F16C0882311F096E916
:1011700011C0772321F09EE8872F762F05C06623C4
:1011800071F096E8862F70E060E02AF09A95660F7D
:10119000771F881FDAF7880F9695879597F9089536
:1011A0000E945A0990F09F3748F4911116F00C9460
:1011B000730960E070E080E89FEB089526F41B1649
:1011C000611D711D811D0C94ED080C94080997F99F
:1011D0009F6780E870E060E00895882371F47723CA
:1011E00021F09850872B762F07C0662311F499279A
:1011F0000DC09051862B70E060E02AF09A95660F42
:10120000771F881FDAF7880F9695879597F90895C5
:101210009F3F31F0915020F4879577956795B7956A
:10122000880F911D9695879597F908959FEF80EC0B
:10123000089500240A94161617061806090608953C
:1012400000240A9412161306140605060895092EA2
:101250000394000C11F4882352F0BB0F40F4BF2B11
:1012600011F460FF04C06F5F7F4F8F4F9F4F089551
:1012700057FD9058440F551F59F05F3F71F0479547
:10128000880F97FB991F61F09F3F79F0879508952C
:10129000121613061406551FF2CF4695F1DF08C04B
:1012A000161617061806991FF1CF86957105610568
:1012B000089408950E944009A0F0BEE7B91788F489
:1012C000BB279F3860F41616B11D672F782F88272B
:1012D000985FF7CF869577956795B11D9395963969
:1012E000C8F30895E894BB2766277727CB0197F9C1
:1012F00008950E948C090C9427090E94190938F05E
:101300000E94200920F0952311F00C94E7080C941A
:10131000160911240C9473090E94380970F3959FE3
:10132000C1F3950F50E0551F629FF001729FBB27DC
:10133000F00DB11D639FAA27F00DB11DAA1F649F78
:101340006627B00DA11D661F829F2227B00DA11D2B
:10135000621F739FB00DA11D621F839FA00D611DB1
:10136000221F749F3327A00D611D231F849F600DD2
:10137000211D822F762F6A2F11249F5750409AF0FB
:10138000F1F088234AF0EE0FFF1FBB1F661F771F87
:10139000881F91505040A9F79E3F510580F00C9452
:1013A000E7080C9473095F3FE4F3983ED4F3869505
:1013B00077956795B795F795E7959F5FC1F7FE2BF2
:1013C000880F911D9695879597F908950E94400979
:1013D000E8F09E37E8F09639B8F49E3848F4672F65
:1013E000782F8827985FF9CF86957795679593959D
:1013F0009539D0F3B62FB1706B0F711D811D20F49C
:1014000087957795679593950C94ED080C9408094A
:101410000C947309DB018F939F930E94500ABF9134
:10142000AF91A29F800D911DA39F900DB29F900D33
:101430001124089597FB072E16F4009407D077FD2A
:1014400009D00E945B0A07FC05D03EF49095819577
:101450009F4F0895709561957F4F0895A1E21A2ED0
:10146000AA1BBB1BFD010DC0AA1FBB1FEE1FFF1F48
:10147000A217B307E407F50720F0A21BB30BE40B98
:10148000F50B661F771F881F991F1A9469F76095DF
:101490007095809590959B01AC01BD01CF01089599
:1014A0000E946F0AA59F900DB49F900DA49F800D80
:1014B000911D11240895AA1BBB1B51E107C0AA1F4F
:1014C000BB1FA617B70710F0A61BB70B881F991FE5
:1014D0005A95A9F780959095BC01CD010895A29FDA
:1014E000B001B39FC001A39F700D811D1124911DF8
:1014F000B29F700D811D1124911D0895FB01DC0127
:1015000001900D920020E1F70895FB01DC014150AC
:10151000504048F001900D920020C9F701C01D9283
:1015200041505040E0F70895AEE0B0E0EAE9FAE05B
:101530000C94550D0D891E8986E08C831A830983CE
:101540008FEF9FE79E838D83AE01475E5F4F6F896C
:10155000788DCE0101960E94B60AEF81F885E00FE2
:10156000F11F10822E96E4E00C94710DABE0B0E018
:10157000ECEBFAE00C94470D6C017B018A01FC0155
:1015800017821682838181FFCCC1CE0101963C0176
:10159000F6019381F70193FD859193FF81917F017E
:1015A000882309F4BAC1853239F493FD859193FFFC
:1015B00081917F01853229F4B60190E00E94AD0C43
:1015C000E7CF912C212C312CFFE1F315D8F08B3291
:1015D00079F038F4803279F08332A1F4232D206140
:1015E0001DC08D3261F0803369F4232D216016C057
:1015F000832D8260382EE32DE4603E2E2AC0F32D29
:10160000F8601DC037FC2DC020ED280F2A3040F0B7
:101610008E32B9F436FC81C1232D2064322E19C0DC
:1016200036FE06C08AE0989E200D1124922E11C02D
:10163000EAE02E9E200D1124222EF32DF0623F2E83
:1016400008C08C3621F4832D8068382E02C088367D
:1016500041F4F70193FD859193FF81917F01811101
:10166000B3CF982F9F7D9554933028F40C5F1F4F74
:101670009FE399830DC0833631F0833771F0833552
:1016800009F059C021C0F801808189830E5F1F4F86
:1016900088248394912C530113C02801F2E04F0E4B
:1016A000511CF801A080B18036FE03C0692D70E0A6
:1016B00002C06FEF7FEFC5010E94A20C4C018201B6
:1016C000F32DFF773F2E16C0280122E0420E511C59
:1016D000F801A080B18036FE03C0692D70E002C021
:1016E0006FEF7FEFC5010E94970C4C01F32DF0685E
:1016F0003F2E820133FC1BC0822D90E08816990694
:10170000B0F4B60180E290E00E94AD0C2A94F4CFD0
:10171000F50137FC859137FE81915F01B60190E0BC
:101720000E94AD0C21102A9421E0821A91088114A4
:10173000910471F7E8C0843611F0893641F5F8015B
:1017400037FE07C060817181828193810C5F1F4FDA
:1017500008C060817181072E000C880B990B0E5F09
:101760001F4FF32DFF763F2E97FF09C09095809570
:10177000709561957F4F8F4F9F4FF0683F2E2AE005
:1017800030E0A3010E94E90C882E861845C08537F9
:1017900031F4232D2F7EB22E2AE030E025C0932D88
:1017A000997FB92E8F36C1F018F4883579F0B5C01D
:1017B000803719F0883721F0B0C0E92FE061BE2EE4
:1017C000B4FE0DC0FB2DF460BF2E09C034FE0AC06C
:1017D000292F2660B22E06C028E030E005C020E1A7
:1017E00030E002C020E132E0F801B7FE07C06081BE
:1017F0007181828193810C5F1F4F06C0608171816E
:1018000080E090E00E5F1F4FA3010E94E90C882E3C
:101810008618FB2DFF773F2E36FE0DC0232D2E7F21
:10182000A22E891458F434FE0BC032FC09C0832D5B
:101830008E7EA82E05C0B82CA32C03C0B82C01C0E6
:10184000B92CA4FE0FC0FE01E80DF11D808180338C
:1018500021F49A2D997EA92E09C0A2FE06C0B39448
:10186000B39404C08A2D867809F0B394A3FC11C008
:10187000A0FE06C0B21488F4280C922C9B180EC04F
:10188000B21460F4B60180E290E00E94AD0CB39413
:10189000F7CFB21418F42B1802C0982C212CA4FEF8
:1018A00010C0B60180E390E00E94AD0CA2FE17C00C
:1018B000A1FC03C088E790E002C088E590E0B60193
:1018C0000CC08A2D867859F0A1FE02C08BE201C0BF
:1018D00080E2A7FC8DE2B60190E00E94AD0C891475
:1018E00038F4B60180E390E00E94AD0C9A94F7CFF3
:1018F0008A94F301E80DF11D8081B60190E00E9409
:10190000AD0C8110F5CF222009F442CEB60180E261
:1019100090E00E94AD0C2A94F6CFF6018681978163
:1019200002C08FEF9FEF2B96E2E10C94630DFC0158
:101930000590615070400110D8F7809590958E0FFA
:101940009F1F0895FC016150704001900110D8F76D
:10195000809590958E0F9F1F08950F931F93CF939F
:10196000DF93FB01238121FD03C08FEF9FEF2CC08C
:1019700022FF16C0468157812481358142175307C3
:1019800044F4A081B1819D012F5F3F4F31832083BB
:101990008C93268137812F5F3F4F3783268314C076
:1019A0008B01EC01FB010084F185E02D0995892B69
:1019B000E1F6D80116968D919C911797019617968E
:1019C0009C938E931697CE01DF91CF911F910F912B
:1019D0000895FA01AA27283051F1203181F1E894C5
:1019E0006F936E7F6E5F7F4F8F4F9F4FAF4FB1E012
:1019F0003ED0B4E03CD0670F781F891F9A1FA11D0D
:101A0000680F791F8A1F911DA11D6A0F711D811D0D
:101A1000911DA11D20D009F468943F912AE0269FD2
:101A200011243019305D3193DEF6CF010895462F31
:101A30004770405D4193B3E00FD0C9F7F6CF462F12
:101A40004F70405D4A3318F0495D31FD405241937B
:101A500002D0A9F7EACFB4E0A69597958795779538
:101A60006795BA95C9F700976105710508959B01BF
:101A7000AC010A2E06945795479537952795BA9548
:101A8000C9F7620F731F841F951FA01D08952F9221
:101A90003F924F925F926F927F928F929F92AF92FE
:101AA000BF92CF92DF92EF92FF920F931F93CF934B
:101AB000DF93CDB7DEB7CA1BDB0B0FB6F894DEBFE2
:101AC0000FBECDBF09942A88398848885F846E8408
:101AD0007D848C849B84AA84B984C884DF80EE8052
:101AE000FD800C811B81AA81B981CE0FD11D0FB65B
:101AF000F894DEBF0FBECDBFED010895F894FFCF7F
:101B000048656C6C6F205445414D2043340025647A
:101B10004D20487A00456E746572206973202070EC
:101B2000726573736564005258204D6F646500548C
:081B300058204D6F64650000B0
:00000001FF
